:100000000C94F2000C9459010C940F010C940F0104
:100010000C940F010C940F010C940F010C940F0120
:100020000C940F010C940F010C940F010C94880593
:100030000C940F010C940F010C947E050C940F018D
:100040000C940F010C940F010C940F010C940F01F0
:100050000C940F010C9411010C940F010C940F01DE
:100060000C940F010C940F0107634236B79BD8A77D
:100070001A39685618AEBAAB558C1D3CB7CC5763CD
:10008000BD6DEDFD753EF6177231BF000000803F7B
:1000900008000000BE922449123EABAAAA2ABECD97
:1000A000CCCC4C3E00000080BEABAAAAAA3E000009
:1000B0000000BF000000803F000000000008417801
:1000C000D3BB4387D1133D190E3CC3BD4282AD2B38
:1000D0003E68EC8276BED98FE1A93E4C80EFFFBE30
:1000E00001C4FF7F3F000000000000407A10F35A77
:1000F00000A0724E18090010A5D4E80000E8764868
:10010000170000E40B54020000CA9A3B000000E113
:10011000F505000080969800000040420F000000A6
:10012000A08601000000102700000000E803000086
:1001300000006400000000000A0000000000010050
:10014000000000002C76D888DC674F0823DFC1DF71
:10015000AE59E1B1B796E5E3E453C63AE651997674
:1001600096E8E6C28426EB898C9B62ED407C6FFCAE
:10017000EFBC9C9F40F2BAA56FA5F490055A2AF7F0
:100180005C936B6CF9676DC11BFCE0E40D47FEF5F9
:1001900020E6B500D0ED902E030094357705008061
:1001A000841E080000204E0A000000C80C333333C0
:1001B000330F986E12831141EF8D2114893BE65560
:1001C00016CFFEE6DB18D1844B381BF77C1D901D43
:1001D000A4BBE424203284725E228100C9F124ECA5
:1001E000A1E53D2711241FBECFEFD8E0DEBFCDBF74
:1001F00011E0A0E0B1E0E8EEF9E102C005900D9257
:10020000A634B107D9F725E0A6E4B1E001C01D92FC
:10021000AC31B207E1F70E94D9040C94F20C0C94B3
:1002200000001F920F920FB60F9211248F939F938D
:10023000EF93FF9380917C0080FF0EC0E09153010B
:10024000F0E08091780090917900EE0FFF1FE4506C
:10025000FE4F9183808312C0E0915301F0E08091C2
:10026000780090917900EE0FFF1FE45AFE4F9183C2
:100270008083809153018F5F80935301809153015C
:10028000803540F0EAE7F0E080818872808381E089
:1002900080935201ECE7F0E0908181E08927808330
:1002A000FF91EF919F918F910F900FBE0F901F9034
:1002B00018951F920F920FB60F9211248F93EF9300
:1002C000FF9380917A0086FD0CC0EAE7F0E0808120
:1002D00088608083ECE7F0E0808182608083109208
:1002E0007B00FF91EF918F910F900FBE0F901F90A9
:1002F0001895ECE7F0E0808180648083EAE7F0E025
:100300008081846E8083EBE7F0E08081826080836F
:100310008DB381608DBBE9E6F0E0808183608083EE
:100320000895BC0180E090E00E948D0720E030E05D
:1003300040EA50E40E941B0820E030EC4FE754E410
:100340000E94EC060895FF920F931F93CF93DF93C3
:10035000F12C3DC0CF2DD0E08E01000F111FF80110
:10036000E45AFE4F808191810E94910126E636E693
:1003700046E050E40E947F0629E93AEA4EEA51E459
:100380000E941B08CC0FDD1FCC0FDD1FFE01E452C5
:10039000FC4F6083718382839383F801E450FE4FA6
:1003A000808191810E94910126E636E646E050E484
:1003B0000E947F0624E237E94FE75FE30E94EC06E4
:1003C000C456DD4F688379838A839B83F3948FE4DB
:1003D0008F1508F0BFCFDF91CF911F910F91FF9044
:1003E00008951F93CF93DF9310E044C0C12FD0E056
:1003F000CC0FDD1FCC0FDD1FFE01E452FC4F6081EE
:1004000071818281938120E030E040E050E40E94DD
:10041000880820914A0130914B0140914C01509144
:100420004D010E94800660934A0170934B018093B6
:100430004C0190934D01C456DD4F688179818A81CA
:100440009B8120E030E040E050E40E948808209149
:1004500046013091470140914801509149010E9465
:100460008006609346017093470180934801909302
:1004700049011F5F103508F4B9CF60914A017091AE
:100480004B0180914C0190914D0120E030E040EA19
:1004900052E40E94EC060E94DE0860934A017093C9
:1004A0004B0180934C0190934D01609146017091F6
:1004B0004701809148019091490120E030E040EAF5
:1004C00052E40E94EC060E94DE086093460170939D
:1004D00047018093480190934901DF91CF911F918B
:1004E00008954F925F926F927F928F929F92AF92F8
:1004F000BF92DF92EF92FF920F931F93CF93DF9300
:10050000DD24D3946AC0CD2DD0E08E01000F111FE1
:10051000000F111FC80184529C4F7C01FC016081B7
:10052000718182819381FE013196EE0FFF1FEE0FE4
:10053000FF1FE452FC4F20813181428153810E9490
:10054000800620E030E040E05FE30E941B084B01A2
:100550005C012197CC0FDD1FCC0FDD1FC456DD4F92
:10056000688179818A819B81E801C456DD4F2881A9
:1005700039814A815B810E94800620E030E040E0C2
:100580005FE30E941B08F701208131814281538182
:100590000E941B082B013C01288139814A815B8123
:1005A000C501B4010E941B089B01AC01C301B2014B
:1005B0000E94800620914E0130914F0140915001E0
:1005C000509151010E94800660934E0170934F013B
:1005D0008093500190935101D394FEE4FD1508F0EF
:1005E00092CF60914E0170914F0180915001909196
:1005F000510120E030E042E053E40E94EC066093B9
:100600004E0170934F018093500190935101DF91FF
:10061000CF911F910F91FF90EF90DF90BF90AF901F
:100620009F908F907F906F905F904F90089587B1CB
:10063000886387B98AB1806F8AB98BB1806F8BB9B3
:100640000895CF92DF92EF92FF92F89420E030E08D
:1006500040E251E40E941B080E945E076B017C018E
:100660009B013695279536952795ABE7B4E10E9417
:100670005A0AAC01569547959A01ADECBCEC0E9424
:100680005A0A9695879596958795969587959C0194
:10069000220F331F880F991F880F991F880F991FEA
:1006A000820F931F9A01281B390BF901E050FF4F6D
:1006B0008081E5E5F1E0808396010E945A0AAC0151
:1006C0005695479556954795569547959A010E9498
:1006D0005A0A9695879596958795969587959C0144
:1006E000220F331F880F991F880F991F880F991F9A
:1006F000820F931F9A01281B390BD901A050BF4FBD
:100700008C918183818180688183CA01880F991FC0
:10071000440F551F440F551F440F551F480F591FB5
:10072000C601841B950BDC01A050BF4F8C918283C6
:100730008EE383837894FF90EF90DF90CF900895BD
:10074000CF92DF92EF92FF92F89420E030E44CE1F8
:1007500056E40E941B080E945E076B017C019B010E
:10076000369527953695279536952795A5ECB0E2D1
:100770000E945A0A929582958F7089279F708927C7
:10078000FC01E050FF4F8081E5E5F1E080839601B8
:100790003695279536952795ABE7B4E10E945A0A1E
:1007A000AC01569547959A01ADECBCEC0E945A0AF3
:1007B0009695879596958795969587959C01220F96
:1007C000331F880F991F880F991F880F991F820F59
:1007D000931F9A01281B390BD901A050BF4F8C9150
:1007E00081839601ADECBCEC0E945A0AAC0156958F
:1007F000479556954795569547959A010E945A0AEE
:100800009695879596958795969587959C01220F45
:10081000331F880F991F880F991F880F991F820F08
:10082000931F9A01281B390BD901A050BF4F8C91FF
:10083000828387E783837894FF90EF90DF90CF9057
:100840000895CF92DF92EF92FF92F89420E030E08B
:1008500048EC52E40E941B080E945E076B017C0179
:100860009B013695279536952795ABE7B4E10E9415
:100870005A0A96958795FC01E050FF4F8081E5E587
:10088000F1E080838081806880839601ADECBCECD0
:100890000E945A0AAC01569547955695479556952C
:1008A00047959A010E945A0A96958795969587953D
:1008B000969587959C01220F331F880F991F880FEB
:1008C000991F880F991F820F931F9A01281B390BBC
:1008D000D901A050BF4F8C918183CA01880F991F05
:1008E000440F551F440F551F440F551F480F591FE4
:1008F000C601841B950BDC01A050BF4F8C918283F5
:1009000083E783837894FF90EF90DF90CF900895F2
:1009100027E01DC088B1877F88B9E0915401F0E0DD
:10092000EB5AFE4F808190E0022E02C0959587958C
:100930000A94E2F780FF04C088B1806188B903C0DF
:1009400088B18F7E88B988B1886088B92150222308
:100950000CF78BB1806F8BB988B1806288B988B190
:100960008F7D88B92091540130E02C5F3F4F81E0AA
:1009700090E002C0880F991F2A95E2F78095909524
:100980009BB189238BB9809154018F5F809354016F
:1009900080915401843010F010925401089587B171
:1009A000887F87B98AB18B7F8AB984B1806284B924
:1009B00008950E94CF040E945D050E9479018CE099
:1009C0000E94BA050E941703789410925B018091EF
:1009D00052018823A9F185B58D7F85BD16BC0E9483
:1009E000A3010E94F1010E94710260914A0170917D
:1009F0004B0180914C0190914D010E94ED05609159
:100A000046017091470180914801909149010E94EF
:100A10001C0660914E0170914F01809150019091A0
:100A200051010E9451068AE091E00E94D005109287
:100A3000530110925201EAE7F0E0808188608083E0
:100A400080915B01882319F285B5826085BD809114
:100A50005901813091F08230D9F0811126C085B1E1
:100A6000806285B960914A0170914B0180914C017F
:100A700090914D010E94210318C060914601709130
:100A8000470180914801909149010E94A0030DC047
:100A900060914E0170914F018091500190915101F0
:100AA0000E9421048FEF80935901809159018F5F3B
:100AB0008093590110925B018ACF84B5826084BD16
:100AC00085B5826085BD88E187BDEEE6F0E0808176
:100AD00082608083E1E8F0E080818C6080838081A7
:100AE000846080838DE290E09093890080938800F9
:100AF000EFE6F0E080818260808308951F920F927C
:100B00000FB60F9211240F900FBE0F901F901895E3
:100B10001F920F920FB60F9211242F933F934F9372
:100B20005F936F937F938F939F93AF93BF93EF9355
:100B3000FF930E94880480915A01843629F481E051
:100B400080935B0110925A0180915A018F5F8093CC
:100B50005A01FF91EF91BF91AF919F918F917F913A
:100B60006F915F914F913F912F910F900FBE0F901A
:100B70001F9018951092C5008093C400E1ECF0E03E
:100B8000808188608083E2ECF0E0808186608083F1
:100B900008959091C00095FFFCCF8093C600089502
:100BA0001F93CF93DF93EC0110E007C0FE01E80F25
:100BB000F91F80810E94C9051F5F812F90E0FE010F
:100BC00001900020E9F73197EC1BFD0B8E179F0772
:100BD00068F3DF91CF911F9108950F931F93CF93E7
:100BE000DF93CDB7DEB728970FB6F894DEBF0FBE00
:100BF000CDBF8E010F5F1F4F21E030E04CEF5FEF64
:100C00000E94690A8DE091E00E94D005C8010E940F
:100C1000D0058EE191E00E94D0058AE091E00E942B
:100C2000D00528960FB6F894DEBF0FBECDBFDF917A
:100C3000CF911F910F9108950F931F93CF93DF933F
:100C4000CDB7DEB728970FB6F894DEBF0FBECDBF85
:100C500020E030E04AE754E40E941B088E010F5F59
:100C60001F4F20E030E04DEF5FEF0E94690A83E202
:100C700091E00E94D005C8010E94D00584E391E074
:100C80000E94D0058AE091E00E94D00528960FB618
:100C9000F894DEBF0FBECDBFDF91CF911F910F91B2
:100CA00008950F931F93CF93DF93CDB7DEB72897A7
:100CB0000FB6F894DEBF0FBECDBF8E010F5F1F4F82
:100CC00022E030E04DEF5FEF0E94690A8AE391E095
:100CD0000E94D005C8010E94D00587E50E94C90581
:100CE0008AE091E00E94D00528960FB6F894DEBF06
:100CF0000FBECDBFDF91CF911F910F910895505836
:100D0000BB27AA270E9497060C94E1070E94D307ED
:100D100038F00E94DA0720F039F49F3F19F426F4E6
:100D20000C94D0070EF4E095E7FB0C94CA07E92F6A
:100D30000E94F20758F3BA176207730784079507F2
:100D400020F079F4A6F50C9414080EF4E0950B2E1F
:100D5000BA2FA02D0B01B90190010C01CA01A0010D
:100D60001124FF27591B99F0593F50F4503E68F168
:100D70001A16F040A22F232F342F4427585FF3CFA9
:100D8000469537952795A795F0405395C9F77EF47A
:100D90001F16BA0B620B730B840BBAF09150A1F0C3
:100DA000FF0FBB1F661F771F881FC2F70EC0BA0F49
:100DB000621F731F841F48F4879577956795B795D1
:100DC000F7959E3F08F0B0CF9395880F08F09927CC
:100DD000EE0F9795879508950E9400070C94E10700
:100DE0000E94DA0758F00E94D30740F029F45F3FD1
:100DF00029F00C94CA0751110C9415080C94D007D3
:100E00000E94F20768F39923B1F3552391F3951BE0
:100E1000550BBB27AA2762177307840738F09F5F1B
:100E20005F4F220F331F441FAA1FA9F335D00E2E88
:100E30003AF0E0E832D091505040E695001CCAF7F5
:100E40002BD0FE2F29D0660F771F881FBB1F2617B8
:100E500037074807AB07B0E809F0BB0B802DBF018F
:100E6000FF2793585F4F3AF09E3F510578F00C945E
:100E7000CA070C9415085F3FE4F3983ED4F38695B7
:100E800077956795B795F7959F5FC9F7880F911D7F
:100E90009695879597F90895E1E0660F771F881F6B
:100EA000BB1F621773078407BA0720F0621B730B1E
:100EB000840BBA0BEE1F88F7E09508950E94FA079D
:100EC00088F09F5798F0B92F9927B751B0F0E1F00B
:100ED000660F771F881F991F1AF0BA95C9F714C0BB
:100EE000B13091F00E941408B1E008950C941408F8
:100EF000672F782F8827B85F39F0B93FCCF38695F4
:100F000077956795B395D9F73EF490958095709550
:100F100061957F4F8F4F9F4F0895E89409C097FBCD
:100F20003EF490958095709561957F4F8F4F9F4FC0
:100F30009923A9F0F92F96E9BB279395F695879504
:100F400077956795B795F111F8CFFAF4BB0F11F4C7
:100F500060FF1BC06F5F7F4F8F4F9F4F16C088236E
:100F600011F096E911C0772321F09EE8872F762FA4
:100F700005C0662371F096E8862F70E060E02AF0E5
:100F80009A95660F771F881FDAF7880F96958795D1
:100F900097F9089597F99F6780E870E060E00895F9
:100FA0009FEF80EC089500240A9416161706180681
:100FB0000906089500240A9412161306140605065D
:100FC0000895092E0394000C11F4882352F0BB0FEE
:100FD00040F4BF2B11F460FF04C06F5F7F4F8F4F51
:100FE0009F4F089557FD9058440F551F59F05F3F8C
:100FF00071F04795880F97FB991F61F09F3F79F03B
:1010000087950895121613061406551FF2CF4695BC
:10101000F1DF08C0161617061806991FF1CF86953E
:101020007105610508940895E894BB276627772722
:10103000CB0197F908950E942E080C94E1070E94B5
:10104000D30738F00E94DA0720F0952311F00C94B2
:10105000CA070C94D00711240C9415080E94F207BB
:1010600070F3959FC1F3950F50E0551F629FF001FB
:10107000729FBB27F00DB11D639FAA27F00DB11D14
:10108000AA1F649F6627B00DA11D661F829F22279D
:10109000B00DA11D621F739FB00DA11D621F839F24
:1010A000A00D611D221F749F3327A00D611D231FFA
:1010B000849F600D211D822F762F6A2F11249F5748
:1010C00050409AF0F1F088234AF0EE0FFF1FBB1F4B
:1010D000661F771F881F91505040A9F79E3F51050A
:1010E00080F00C94CA070C9415085F3FE4F3983E17
:1010F000D4F3869577956795B795F795E7959F5FB4
:10110000C1F7FE2B880F911D9695879597F9089545
:10111000FA01EE0FFF1F309621053105A1F161158F
:10112000710561F48038BFE39B0749F168949038FA
:10113000810561F08038BFEF9B0741F099234AF5A4
:10114000FF3FE1053105210519F1E8940894E79581
:10115000D901AA2329F4AB2FBE2FF85FD0F310C01A
:10116000FF5F70F4A695E0F7F73950F019F0FF3AF9
:1011700038F49F779F930DD00F9007FC90580895F7
:1011800046F00C94D00760E070E080E89FE308959B
:101190004FE79F775F934F933F932F930E94DE0912
:1011A0002F913F914F915F910E941B080C9426094B
:1011B00019F416F40C94D0070C9458090E94FA07FD
:1011C000B8F39923C9F3B6F39F57550B87FF0E94D5
:1011D00066090024A0E640EA90018058569597954C
:1011E00028F4805C660F771F881F20F026173707CA
:1011F000480730F4621B730B840B202931294A2BDA
:10120000A69517940794202531254A2758F7660F8D
:10121000771F881F20F026173707480730F4620B26
:10122000730B840B200D311D411DA09581F7B90171
:10123000842F9158880F96958795089529F416F074
:101240000C94CA070C9414080C94D0070E94FA0757
:10125000A8F39638A0F707F80F92E8942BE33AEA40
:1012600048EB5FE70E9431080F920F920F924DB743
:101270005EB70F920E94260AE8E6F0E00E946D0930
:101280004F915F91EF91FF91E595EE1FFF1F49F0A0
:10129000FE57E0684427EE0F441FFA95E1F74195A9
:1012A000550B0E94A0090F9007FE0C949409089515
:1012B0009F3F31F0915020F4879577956795B795CA
:1012C000880F911D9695879597F9089591505040F4
:1012D000660F771F881FD2F70895DF93CF931F9370
:1012E0000F93FF92EF92DF927B018C01689406C00E
:1012F000DA2EEF010E942E08FE01E894A5912591B7
:10130000359145915591A6F3EF010E949706FE0194
:101310009701A801DA9469F7DF90EF90FF900F91A1
:101320001F91CF91DF9108959B01AC0160E070E0C7
:1013300080E89FE30C94EC060C94CA070C945809BF
:101340000E94FA07D8F39923C9F3940F511DA3F310
:101350009150504094F059F0882332F0660F771F77
:10136000881F91505040C1F79E3F51052CF7880FC0
:10137000911D9695879597F908955F3FACF0983E3B
:101380009CF0BB27869577956795B79508F4B16073
:101390009395C1F7BB0F58F711F460FFE8CF6F5F6B
:1013A0007F4F8F4F9F4FE3CF0C94150816F00C948E
:1013B00058090C94D00768940C94CA070E94FA0745
:1013C000A8F39923C1F3AEF3DF93CF931F930F9349
:1013D000FF92C92FDD2788232AF02197660F771FF8
:1013E000881FDAF720E030E040E85FEB9FE38839C0
:1013F00020F0803E38F021968F770E948006E0E949
:10140000F0E004C00E948006EDEBF0E00E946D0960
:101410008B01BE01EC01FB2E6F5771097595771F8B
:10142000880B990B0E948F0728E132E741E35FE3C5
:101430000E942E08AF2D9801AE01FF900F911F91D1
:10144000CF91DF910E9497060C94E107FA01DC012D
:10145000AA0FBB1F9B01AC01BF5728F422273327DB
:101460004427507820C0B75190F4AB2F0024469504
:1014700037952795011CA395D2F3002071F0220F18
:10148000331F441FB395DAF30ED00C947F066130FE
:101490007105A0E88A07B94630F49B01AC016627C4
:1014A000772788279078309621F0208331834283F4
:1014B00053830895A29FB001B39FC001A39F700DF5
:1014C000811D1124911DB29F700D811D1124911D4C
:1014D0000895EF920F931F93CF93DF93E80147FD99
:1014E00002C034E001C034E1042E000C550B57FF5C
:1014F00003C0519541955109E32E022F242FAE01CF
:101500000E94890ACE01DF91CF911F910F91EF9038
:101510000895A9E0B0E0EFE8FAE00C94C10C6A018C
:10152000122FB02E2BE3201720F0FF24F394F00E9F
:1015300002C02CE3F22E0F2D27E0AE014F5F5F4F6C
:101540000E94E30BBC014981842F8970813031F006
:10155000E1FC06C0E0FE06C090E205C09DE203C0CB
:101560009BE201C090E05E2D507143FF3CC09111A1
:1015700002C083E001C084E0811718F4212F281BEA
:1015800001C020E051110BC0F601822F30E2882308
:1015900019F031938150FBCFC20ED11C20E099236A
:1015A00029F0D6019C93F60131966F01C60103968E
:1015B000E2FE0AC03EE4D6013C9341E411964C930E
:1015C000119712963C9306C03EE6F601308341E641
:1015D00041833283FC01322F40E2332309F442C0BD
:1015E00041933150FACF42FF44C0911102C083E0D1
:1015F00001C084E0811718F4212F281B01C020E0CE
:1016000051110BC0F601822F30E2882319F031937B
:101610008150FBCFC20ED11C20E0992329F0D601C6
:101620009C93F60131966F01C6010396E2FE0BC052
:1016300039E4D6013C933EE411963C93119736E48D
:1016400012963C9307C039E6F60130833EE63183BB
:1016500036E63283FC01322F40E2332319F0419306
:101660003150FBCFFC01E20FF11D10828EEF9FEF96
:10167000A6C021E030E0911102C020E030E0161653
:1016800017061CF4FB01319602C0E1E0F0E02E0FDA
:101690003F1FBB2021F0EB2DF0E0319602C0E0E0CF
:1016A000F0E02E0F3F1FE12FF0E02E173F071CF454
:1016B000121B212F01C020E08E2D887159F4F601F4
:1016C000822F30E2882319F031938150FBCFC20E74
:1016D000D11C20E0992329F0D6019C93F601319684
:1016E0006F0151110BC0F601822F90E3882319F08E
:1016F00091938150FBCFC20ED11C20E00F2D060F1D
:101700009A81342F307144FF03C0913309F40150A2
:10171000101624F4093018F008E001C001E0AB0114
:1017200077FF02C040E050E0FB01E41BF50BA1E0B5
:10173000B0E0AC0FBD1FEA0FFB1F8EE2A82E4B01DD
:10174000801A91080B2D10E01195019511094F3F5A
:10175000BFEF5B0721F4D601AC9211966D016417BF
:1017600075072CF08416950614F4818101C080E37E
:10177000415051093196D60111967D01401751070C
:1017800024F0D6018C936701E2CF6417750739F412
:10179000963320F4953319F4311101C081E3F60139
:1017A0008083F701822F90E2882319F09193815072
:1017B000FBCFF701E20FF11D108280E090E0299647
:1017C000ECE00C94DD0C283008F027E03327DA0138
:1017D000990F311D87FD916000966105710539F4FF
:1017E00032602E5F3D9330E32A95E1F708959F3FE5
:1017F00030F080387105610509F03C5F3C5F3D9336
:10180000913008F08068911DDF93CF931F930F9361
:10181000FF92EF92192F987F9695E92F96959695BE
:10182000E90FFF27EC5BFE4F99273327EE24FF24B7
:10183000A701E70105900894079428F4360FE71EE6
:10184000F81E491F511D660F771F881F991F0694A8
:10185000A1F70590079428F4E70EF81E491F561FBC
:10186000C11D770F881F991F661F0694A1F7059069
:10187000079428F4F80E491F561FC71FD11D880F63
:10188000991F661F771F0694A1F70590079420F40F
:10189000490F561FC71FD81F990F661F771F881F34
:1018A0000694A9F784911095177041F0D695C795C5
:1018B00057954795F794E7941A95C1F7EAEEF0E04B
:1018C00068941590159135916591959105907FE2F9
:1018D0007395E118F10A430B560BC90BD009C0F7F9
:1018E000E10CF11E431F561FC91FD01D7EF470333B
:1018F00011F48A95E6CFE894015030F0080F0AF40D
:101900000027021708F4202F2395022F7A3328F09E
:1019100079E37D932A95E9F710C07D932A9589F69E
:10192000069497956795379517951794E118F10ADE
:10193000430B560BC90BD00998F023957E917395F4
:101940007A3308F070E37C932013B8F77E917061CE
:101950007D9330F0839571E37D9370E32A95E1F7F1
:101960001124EF90FF900F911F91CF91DF91992754
:1019700087FD909508952F923F924F925F926F92BC
:101980007F928F929F92AF92BF92CF92DF92EF920F
:10199000FF920F931F93CF93DF93CDB7DEB7CA1B90
:1019A000DB0B0FB6F894DEBF0FBECDBF09942A88BB
:1019B000398848885F846E847D848C849B84AA8463
:1019C000B984C884DF80EE80FD800C811B81AA81F0
:1019D000B981CE0FD11D0FB6F894DEBF0FBECDBFBB
:0819E000ED010895F894FFCF1A
:1019E8003F065B4F666D7D077F6F0D0A00524D53B2
:1019F80020566F6C746167652069733A20005672CF
:101A08006D7300524D532043757272656E74206970
:101A1800733A20006D41726D7300506F77657220C4
:061A280069733A20000082
:00000001FF
